:020000040000fa
:080000000002040000000000f2
:020000040000fa
:040008002e030000c3
:020000040000fa
:04000c002e030000bf
:020000040000fa
:040010002e030000bb
:020000040000fa
:040014002e030000b7
:020000040000fa
:040018002e030000b3
:020000040000fa
:04001c002e030000af
:020000040000fa
:040020002e030000ab
:020000040000fa
:040024002e030000a7
:020000040000fa
:040028002e030000a3
:020000040000fa
:04002c002e0300009f
:020000040000fa
:040030002e0300009b
:020000040000fa
:04003400260300009f
:020000040000fa
:040038002e03000093
:020000040000fa
:04003c002e0300008f
:020000040000fa
:040040002e0300008b
:020000040000fa
:040044002e03000087
:020000040000fa
:040048002e03000083
:020000040000fa
:04004c002e0300007f
:020000040000fa
:040050002e0300007b
:020000040000fa
:040054002e03000077
:020000040000fa
:040058002e03000073
:020000040000fa
:04005c001e0300007f
:020000040000fa
:040060002e0300006b
:020000040000fa
:040064002e03000067
:020000040000fa
:040068002e03000063
:020000040000fa
:04006c002e0300005f
:020000040000fa
:040070002e0300005b
:020000040000fa
:04007400c8020000be
:020000040000fa
:040078002e03000053
:020000040000fa
:04007c002e0300004f
:020000040000fa
:040080002e0300004b
:020000040000fa
:040084002e03000047
:020000040000fa
:040088002e03000043
:020000040000fa
:04008c002e0300003f
:020000040000fa
:040090002e0300003b
:020000040000fa
:040094002e03000037
:020000040000fa
:040098002e03000033
:020000040000fa
:04009c002e0300002f
:020000040000fa
:0400a0000e0300004b
:020000040000fa
:0400a400160300003f
:020000040000fa
:0400a8002e03000023
:020000040000fa
:0400ac002e0300001f
:020000040000fa
:0400b0002e0300001b
:020000040000fa
:0400b4002e03000017
:020000040000fa
:0400b8002e03000013
:020000040000fa
:0400bc002e0300000f
:020000040000fa
:0400c0002e0300000b
:020000040000fa
:0400c4002e03000007
:020000040000fa
:0400c8002e03000003
:020000040000fa
:0400cc002e030000ff
:020000040000fa
:0400d0002e030000fb
:020000040000fa
:0400d4002e030000f7
:020000040000fa
:0400d8002e030000f3
:020000040000fa
:0400dc002e030000ef
:020000040000fa
:0400e0002e030000eb
:020000040000fa
:0400e4002e030000e7
:020000040000fa
:0400e8002e030000e3
:020000040000fa
:0400ec002e030000df
:020000040000fa
:0400f0002e030000db
:020000040000fa
:0400f4002e030000d7
:020000040000fa
:0400f8002e030000d3
:020000040000fa
:0400fc002e030000cf
:020000040000fa
:040100002e030000ca
:020000040000fa
:040104002e030000c6
:020000040000fa
:040108002e030000c2
:020000040000fa
:04010c002e030000be
:020000040000fa
:040110002e030000ba
:020000040000fa
:040114002e030000b6
:020000040000fa
:040118002e030000b2
:020000040000fa
:04011c002e030000ae
:020000040000fa
:040120002e030000aa
:020000040000fa
:040124002e030000a6
:020000040000fa
:040128002e030000a2
:020000040000fa
:04012c002e0300009e
:020000040000fa
:040130002e0300009a
:020000040000fa
:040134002e03000096
:020000040000fa
:040138002e03000092
:020000040000fa
:04013c002e0300008e
:020000040000fa
:040140002e0300008a
:020000040000fa
:040144002e03000086
:020000040000fa
:040148002e03000082
:020000040000fa
:04014c002e0300007e
:020000040000fa
:040150002e0300007a
:020000040000fa
:040154002e03000076
:020000040000fa
:040158002e03000072
:020000040000fa
:04015c002e0300006e
:020000040000fa
:040208002e030000c1
:020000040000fa
:04020c002e030000bd
:020000040000fa
:040210002e030000b9
:020000040000fa
:040214002e030000b5
:020000040000fa
:040218002e030000b1
:020000040000fa
:04021c002e030000ad
:020000040000fa
:040220002e030000a9
:020000040000fa
:040224002e030000a5
:020000040000fa
:040228002e030000a1
:020000040000fa
:04022c002e0300009d
:020000040000fa
:040230002e03000099
:020000040000fa
:04023400260300009d
:020000040000fa
:040238002e03000091
:020000040000fa
:04023c002e0300008d
:020000040000fa
:040240002e03000089
:020000040000fa
:040244002e03000085
:020000040000fa
:040248002e03000081
:020000040000fa
:04024c002e0300007d
:020000040000fa
:040250002e03000079
:020000040000fa
:040254002e03000075
:020000040000fa
:040258002e03000071
:020000040000fa
:04025c001e0300007d
:020000040000fa
:040260002e03000069
:020000040000fa
:040264002e03000065
:020000040000fa
:040268002e03000061
:020000040000fa
:04026c002e0300005d
:020000040000fa
:040270002e03000059
:020000040000fa
:04027400c8020000bc
:020000040000fa
:040278002e03000051
:020000040000fa
:04027c002e0300004d
:020000040000fa
:040280002e03000049
:020000040000fa
:040284002e03000045
:020000040000fa
:040288002e03000041
:020000040000fa
:04028c002e0300003d
:020000040000fa
:040290002e03000039
:020000040000fa
:040294002e03000035
:020000040000fa
:040298002e03000031
:020000040000fa
:04029c002e0300002d
:020000040000fa
:0402a0000e03000049
:020000040000fa
:0402a400160300003d
:020000040000fa
:0402a8002e03000021
:020000040000fa
:0402ac002e0300001d
:020000040000fa
:0402b0002e03000019
:020000040000fa
:0402b4002e03000015
:020000040000fa
:0402b8002e03000011
:020000040000fa
:0402bc002e0300000d
:020000040000fa
:0402c0002e03000009
:020000040000fa
:0402c4002e03000005
:020000040000fa
:0402c8002e03000001
:020000040000fa
:0402cc002e030000fd
:020000040000fa
:0402d0002e030000f9
:020000040000fa
:0402d4002e030000f5
:020000040000fa
:0402d8002e030000f1
:020000040000fa
:0402dc002e030000ed
:020000040000fa
:0402e0002e030000e9
:020000040000fa
:0402e4002e030000e5
:020000040000fa
:0402e8002e030000e1
:020000040000fa
:0402ec002e030000dd
:020000040000fa
:0402f0002e030000d9
:020000040000fa
:0402f4002e030000d5
:020000040000fa
:0402f8002e030000d1
:020000040000fa
:0402fc002e030000cd
:020000040000fa
:040300002e030000c8
:020000040000fa
:040304002e030000c4
:020000040000fa
:040308002e030000c0
:020000040000fa
:04030c002e030000bc
:020000040000fa
:040310002e030000b8
:020000040000fa
:040314002e030000b4
:020000040000fa
:040318002e030000b0
:020000040000fa
:04031c002e030000ac
:020000040000fa
:040320002e030000a8
:020000040000fa
:040324002e030000a4
:020000040000fa
:040328002e030000a0
:020000040000fa
:04032c002e0300009c
:020000040000fa
:040330002e03000098
:020000040000fa
:040334002e03000094
:020000040000fa
:040338002e03000090
:020000040000fa
:04033c002e0300008c
:020000040000fa
:040340002e03000088
:020000040000fa
:040344002e03000084
:020000040000fa
:040348002e03000080
:020000040000fa
:04034c002e0300007c
:020000040000fa
:040350002e03000078
:020000040000fa
:040354002e03000074
:020000040000fa
:040358002e03000070
:020000040000fa
:04035c002e0300006c
:020000040000fa
:10040000af8020000edf20000e01880000000000f9
:10041000000020000000e000020032000001200087
:1004200020028800140007008e0007000000e00092
:1004300003003a0040fd20000100200002003700c8
:100440000000200001002000810f70000100320038
:1004500014000700000020000000e000020032004d
:100460000000020000000000ba0f020000000000bf
:100470000040da000000fe004440a90060062000b1
:100480000000e0000300320000002000a00188000e
:100490004440a800000006008a1f78008b1f7800e7
:1004a0000000060091018800800478000000eb0045
:1004b0001a003700e284440032a0b4009905ba0063
:1004c000e284440032a0b4009906ba00e2844400f9
:1004d00032a0b4000006eb00476fde00fd07b2005b
:1004e000636ce10003003a00ebff07000000eb0043
:1004f0000a003700606ce10004003a00005deb0088
:100500008b05e900fdff3e00040037006168e10053
:10051000010032000086eb000b00070019c7ba008b
:100520001905ba000e04e00003003a000a00e000da
:10053000e0ff3a0000000600fe07b2009e018800be
:100540008a047800f5ff3700395dba008b05e900b1
:100550000c003200295dba008b05e900080032006a
:100560000c00e00003003a00e284440032a0b40032
:10057000f5ff370019ddba008b05e900faff3a00f4
:100580008904e800e184440032a0b40000000600c1
:10059000801f78000000fa003004800068006000ce
:1005a0000000e000180032001016800064006000b7
:1005b0000000e00003003a00100020000040880026
:1005c000010037000028ef00501680007000600026
:1005d0000000e00003003a001000200010408800f6
:1005e000010037000228ef00101680007000600044
:1005f0000000e00003003a001000200020408800c6
:10060000010037000428ef008660a9000000000008
:100610000080fa004f007800004006000000fa0059
:1006200087c0a9000080fa00004006000000fa0020
:1006300087e0a9000080fa00004006000000fa00f0
:1006400085a0a9000080fa00004006000000fa0022
:100650008460a9000080fa00004006000040da0033
:100660000000fe000000050003f0a200889fbe000d
:100670008a9fbe008c1f78001f01070026013300ef
:100680006450e1004f0032006420e100520032006b
:1006900003826c0007003b000905d0000306d00070
:1006a000820f54000c065d00020039000200320087
:1006b00089017800030678008582550004003d001a
:1006c0000003fd008103fd008502ea008b854200e6
:1006d000840f720002003b0060001000e0801800f0
:1006e0006011b8000005eb007a28e1000a0039002b
:1006f00006007800c75ddd00f707b200878075004f
:100700002d003700828171000a01780061056000c8
:100710008180d1000080d3008502e900f9ff3b0011
:10072000060440008784480002003b006004140077
:10073000e0841c000988a300070032008a81710050
:1007400082817100610164008904d1000884d300b2
:100750008b05e800170037000978a30013003a0062
:100760000b00e000130034008b05e900080444008e
:1007700089844c000a4474000978a3000d003a00f3
:100780000b00e000070034008b05e900080444007a
:1007900089844c0001003a000b0020000978a30076
:1007a000f7ff32000001eb00020037008281710088
:1007b0000a017800950007000cf0a70001f0a000e6
:1007c000de0037006420e10002003a00838f6c00f5
:1007d000de0033000801be000200be00d700370073
:1007e000889fbe008a9fbe008c1f7800c200070051
:1007f000c900330003866c006450e1002e00320013
:100800006420e100330032006150e1002f0032002b
:100810006120e1003100320085855500eb07b00012
:1008200009002000080420000500370008044400e7
:1008300089844c000a0031000603430087834b0083
:100840000001530081815b00f8ff33000203be000a
:100850000800a0000804440089844c00f6ff390019
:10086000c639dd008301730001003200130020004f
:100870008904d1000884d3000998a3000500320040
:100880000800a7000300a0008904d1000884d30059
:100890008b05e8008904d1000884d3000001eb0037
:1008a0000281d2005900070001f0a1000cf0a7005e
:1008b00001f0a000a10037006420e100a300320095
:1008c0000801be000200be00f7ff37006120e10012
:1008d0009e0032006000b800f3ff370000002000e7
:1008e00001f82700f0ff37000001be006d0007008f
:1008f0000470a70003f0a1006509b10016003200e2
:100900000d0035006828e10006003500f0ff2f00db
:10091000f1ff27000300e00013003b000100280066
:100920000000050000004000818048008502e900c9
:10093000fcff3a0008003700f88f420002003c003c
:100940008000eb00000005008100d1000080d30092
:100950008502e800fcff3a000300e00002003b00d3
:1009600060001000e0801800000006000001be00da
:100970004c0007000470a70003f0a10003f8a300d7
:1009800013003a006509b10010003200090035007b
:100990006928e10002003500010028000000050080
:1009a00000004000818048008502e900fcff3a0019
:1009b00000000600f88f4200050035008100d100dc
:1009c0000080d3008502e800fcff3a00000006002a
:1009d0008000eb00000005004f89de0082017800f6
:1009e0001e0237006011b8002c0237000001eb0036
:1009f000ef010700040032000200200003f823008a
:100a000001f0a70018ff0700000006008100200089
:100a1000618055000b003d000b00200061fe2f009f
:100a20000100e1001d003400828171006101640059
:100a30008904d1000884d3000000e800faff3a00de
:100a4000710020006100640003007000020060007b
:100a50000900320061044400e0844c000988a500cc
:100a6000050032008b05e8006808e10002003a004a
:100a70008904d1000884d300f20f20000258e1005d
:100a800005003d00c75ddd00f907b20089807500f3
:100a900008007800000006000bf827008b007800a3
:100aa00000000500c70ade00f107b200f50fb20032
:100ab00008003200e1cf4200020032000170a000c5
:100ac00024000500810f70000100320004080500b9
:100ad00044000500810f700002003a001400050078
:100ae0008502e9000000400081c04800fcff3b0097
:100af0000170a000240005000004be00e9ff07000b
:100b00000003be000405be000200be00e5ff0700b2
:100b1000844f7500000006000200be006450e10032
:100b2000050036006420e100020036000968a300d9
:100b300001003a000800be000160a0004f067800e6
:100b40004f05be004f04be0000000600f0ff2f005e
:100b5000f1ff2700f9ff3700889fbe008a9fbe0083
:100b60008c1f7800e4ff0700ebff330003866c0066
:100b70006450e100240032006420e10027003200cc
:100b80006150e100220032006120e10021003200ca
:100b90008b854200eb07b1000134b800003ab80081
:100ba0000804420089844a00013ab8000030b800c5
:100bb0008880400009014a00040033000000400022
:100bc00081804800020149008b05e900c909dd0068
:100bd000830170000100320013002000c814de0001
:100be0004814dd004709de001200b200c808de002c
:100bf0000884700085ff070001f0a1000cf0a70039
:100c000001f0a000cdff37006120e100cfff3200ee
:100c10000801be000200be00f7ff37006150e1008e
:100c2000fcff3a00c9ff37000c00fa00889fbe00a5
:100c30008a9fbe008c9fbe00afff07000206be0069
:100c4000840578000200be00020020005801070061
:100c500005003a008b02b300120020005401070087
:100c600001003a00f8856d000c01be00c6000700c7
:100c70000800be009b0032000b08a3009e003a0053
:100c80000df0a7000be0a00009f0a7000bf0a000fa
:100c900009f0a1000801be00bb0007000bf0a60090
:100ca0009500320001003c000bd0a0008acf7500f7
:100cb000b20033006000b8006250e10099003900d2
:100cc000a1003e000b28a300a2003a000bf8a300ed
:100cd000060032000b58a300a70032000801be0036
:100ce000a90007000800be00940032000800be0002
:100cf000c00007000004be00050578000bf0a70047
:100d00000b30a6000bf0a1005b079800324f2000cb
:100d100053f323004d01070005003d000800be000d
:100d2000120020008c0107000004be000a05e90043
:100d30004a0798006150b90027ff0700008fbe00e6
:100d40000c01be0084ff0700e7fe07003007980093
:100d50000100e00002003d0060001000e08018008b
:100d6000f2ff2700820f5000e08f580064003e0021
:100d70000c00be00dcfe070020079800f2072000f0
:100d8000820f5000e08f580005003c0012f82f0041
:100d9000f3ff2f00820f5000838f580009003d00a1
:100da0000a00e0000300320001003c000201ea00fa
:100db000020578006000b800200798003a07980004
:100dc000190037003e0090006100b90002ff0700e3
:100dd000809fbe000c00be004109dd004811de000e
:100de0007208b100f20007000005be001e01be003f
:100df00059ff07004f01be001bfe0700809fbe0089
:100e00000c00be000a01be0017fe07001e01be0056
:100e100051ff07004f01be0014fe0700822127008a
:100e200013f323004cff07000005be002e009000c6
:100e30006100b900e8fe070001f0a2000c01be004d
:100e40000afe07000006be000800be00640107009d
:100e50000c01be0040ff07000a01be0003fe0700b0
:100e6000809fbe004a0007002e0590000af0a700f0
:100e70000a05ea00050037000800be000801be00b0
:100e800035ff07000004be000c00be000801be00d4
:100e90000a00a70030ff07000006be000a05d100c7
:100ea000f5ff3a005e01900002e0a6000300370063
:100eb0000001be003600070049fe07000004be0026
:100ec0004f00be00580007000801be0022ff0700c7
:100ed0003e01900020010700de0590000bf0a70006
:100ee00001f0a2004f06be004f05be004f04be0039
:100ef0000080fa000000060025000700f9ff370017
:100f0000270007006000b8000bd0a7000bc0a000ae
:100f10000be0a7000bc0a2000bc0a70001f8270040
:100f2000f0ff37000df8a300020032001e0007009a
:100f3000190007000bf8a300eaff32000b30a700ee
:100f400001f0a200e7ff37000df8a300f9ff3a0017
:100f5000f7ff37000801be000b000700e6ff320074
:100f600001003c000df0a2006000b8000df0a700e9
:100f700009000700dbff37000b000700f1ff270027
:100f8000f0ff2f00d7ff370001000700af00370048
:100f900001f823000000050001f82700000005000b
:100fa000200220000100370010022000404088008d
:100fb000000006006022b800060220000000d000f9
:100fc0008180d2000482d2008582d2000000a0007d
:100fd0000202520083825a000300310002024200e2
:100fe00083824a000000a1000603e900f3ff3a00f3
:100ff000000006000003be00aafe07006220e10018
:10100000020032000600be0005000500e507b10041
:10101000f107b20004f023008480700007f0a700fd
:1010200001f0a00024000500889fbe008a9fbe003a
:101030008c9fbe000004be009afe07000800be00a0
:101040006420e10048003e00550032007221270074
:10105000132b24007f00070047003c000800be005f
:10106000c2ec2800e32c2c00780007004700350074
:101070000800be0001f0a100020020000338230098
:1010800072000700430035000800be00b2a32a002a
:1010900083fb2300b0fe07000200200003f02300c2
:1010a00001f0a70003f0a00070fd07000efe07008e
:1010b0000005be0048fe070001f0a2000006be00c9
:1010c0000200280013f32300a3fe07000801be005e
:1010d00066fd0700809fbe000c00be00320828009d
:1010e000e3952b009cfe07004f01be005ffd07004b
:1010f0000006be000001be0097fe0700809fbe00f4
:101100004241250083b8230093fe0700020020001f
:1011100003e8230055fd07000c01be008efe07000a
:101120000006be004f00be00f2f92b00c3d423001e
:1011300089fe07000200200003f023004bfd07009a
:101140000c01be0048fd07000001be000c00be00ff
:10115000a3fd07000200200003f0230043fd070069
:10116000610145007c0007004f06be004f05be0030
:101170004f04be000000060001f827000000200018
:101180002202200042408800f7ff37006000b800cc
:10119000fbff370001f8230000002000f2ff3700ba
:1011a00009f8a300f0ff32006000b800eeff37003e
:1011b000889fbe008a9fbe000003be0039fe070064
:1011c0008505780082815200020020006220e10043
:1011d00004003a00f307b100040035007718e1007d
:1011e000040035000600be00140037006000b8009f
:1011f0000f003700f50f2000faff2f008502d10005
:101200000a85d3008301e900fcff3b008184620072
:1012100000046500890f7400f2ff32008582ea0045
:101220000a85ea008184620000046500f7fd07007a
:1012300007f0a70001f0a0000081eb000200e00031
:101240004f05be004f04be00000006001400200041
:10125000ba003700f4ff2f00b8003700881f78006d
:10126000030478000300e00007003d006000100068
:10127000e080180060011900e081190002003b00c5
:1012800001f02d00030037000400070008f0a7005c
:1012900001f0a0004f04780000000600889fbe0007
:1012a0008a9fbe00008270000402710004827100f7
:1012b000260032000004be000200be006011b8002b
:1012c0006b092000950220000182cf000a0039003e
:1012d0000541b1000082cf00070039000541b1008f
:1012e0000982cf00040039000541b1000882cf0017
:1012f000010039000541b1000542520012003200e0
:101300000a003b0082817100610164008100d1000c
:101310000080d3008984d3000884d3008b05e800c3
:101320000442e800f7ff3a000700370008044400d1
:1013300089844c0000004800818048008b05e9004a
:101340000442e900f9ff3a00b0fd07004f05be0076
:101350004f04be00000006000003be00d1fd0700e0
:101360006220e100020032000600be00000006001c
:1013700085024100e30f20000328e10005003c0046
:10138000a3fe2f000328e10007003d000500200018
:1013900001003700f50f20002002200040408800a7
:1013a0006000b8000800370013002000838152005d
:1013b00005003d008100d1000080d3008301e800da
:1013c000fcff3a0005002000c72add00f107b2004b
:1013d0008580700007f0a70001f0a0000000060063
:1013e000889fbe008a9fbe008c9fbe0001ff070041
:1013f000850478000005be006420e10049003e003d
:101400006220e10003003200090035000bf8a30060
:10141000440032000bf8a300080032001002200044
:1014200040408800f0ff2f00f1ff27003d0037000b
:1014300001f82f00000020003a0037003d000700af
:1014400089fc07000006be000a00be00324f2000e3
:1014500053f323007fff0700060034000c00be009a
:101460003400070080fc07000006be000a00be0032
:10147000020037008904e9000c00be002d000700bf
:10148000b5fd07002b00070078fc07000001be0037
:101490000c00be00d2fc07000005be000001be002b
:1014a000adfd07000006be00a2f32300430d2c0093
:1014b0006efc0700809fbe000c00be00d2e3270038
:1014c000d3f02b00a4fd07004f01be00c4fc0700b1
:1014d0000006be000a01be009ffd07000a01be0013
:1014e00062fc07000006be006148b9003afd070033
:1014f0000005be0032082800e3952b0096fd07008a
:101500000c01be0059fc07000006be000a00be0028
:101510000200280013f323008ffd07000c01be001a
:1015200052fc07004f06be004f05be004f04be0030
:101530000000060003f0230002000500889fbe00a3
:101540008a9fbe00841f78006bfd07004f00780063
:1015500011003300f0ff2f00838f6c0006003b006a
:10156000040565000a00a7000800370009f0a6007e
:101570001000200008003700820f5400838f5c00a9
:10158000030039001000200001003e000000200090
:1015900009f0a7000000ea004f05be004f04be009e
:1015a0000000e00000000600800178000200370023
:1015b000b15978000201e9000200e000fcff3a00a6
:1015c0000000060080007800010178003104e0008e
:0c15d000fdff3a00000051000000060082
:020000040000fa
:1015dc00564f00004c5400004d450000544500008f
:1015ec0052200000566f00006c7400006167000010
:1015fc00652000003d000000560000004f48000030
:10160c004d4d000045540000455200002052000092
:10161c006573000069730000746100006e63000064
:10162c00652000003d000000cea900000043000032
:10163c00617000006163000069740000616e00005d
:10164c0063650000203d00000075000046000000ae
:10165c004672000065710000756500006e63000045
:10166c00792000003d000000487a000000000000d6
:10167c00202000002020000020200000202000005e
:10168c00202000002020000020200000202000004e
:0c169c0020200000202000000d000000b5
:020000040000fa
:1016a8000000fa00c802a900c822a800cc02a800bd
:1016b8008000200080118800113a80000000270077
:1016c8008080600000002600808f500003003a00f0
:1016d800c0002000c011880010003700113a8000b7
:1016e800000027008080600000002500808f5000e7
:1016f80003003a00c0002000c0118800070037002e
:10170800113a800000002700008060000000e0001f
:1017180002003a0070062000c011880000002a006c
:101728009011880087e0a90091058000f0ff28004b
:101738008080600000002300010070009005880090
:1017480097e0a80087c0a90091058000f08f2f00be
:101758000080600000a0a0009005880097c0a90044
:1017680031e2a8003342a8000080fa000000060019
:101778000400fa00004f780011079800c8ff07001e
:101788000b003700000000009111800000202000ad
:10179800008060000000e000fbff3a001e00fb0034
:1017a800a01188001e0090000000e90010079800b2
:1017b8001e0090000000e000f2ff3a000000000068
:1017c8009111800000102000008060000000e000ff
:1017d800fbff320031e2a9000080fa000000060099
:1017e8000400fa00100798000040eb00104798002a
:1017f8001100200000c2b300ddff07001100200027
:1018080000c3b300daff07001100200080c7b3004f
:10181800d7ff070030c0b300004f7800150037002d
:101828001e00fb004200dd009e0090000008de0064
:10183800004078006f406000104798001e409000fc
:10184800e94f5000040034001e4090007043b0007f
:1018580010479800030037001e4090000043b00076
:1018680010479800110020001e409000c0ff07009c
:101878001e4fe9001e4078000004e000e8ff3d002c
:101888001100200000c2b300b9ff07000000eb0000
:10189800100798000080fa00000006000600fa0011
:1018a80010079800210798000040eb0010479800a7
:1018b8001100200000c2b300adff07001100200096
:1018c80000c3b300aaff07001100200080c7b300bf
:1018d800a7ff070070c0b300004f78001b00370057
:1018e8001e00fb004201dd001e009000ae009000cb
:1018f800820178008301e900030033008100d100f0
:101908000080d300fbff3700004078006f40600084
:10191800104798001e409000e94f50000400340022
:101928001e4090007043b000104798000300370035
:101938001e4090000043b00010479800110020009e
:101948001e4090008aff07001e4fe9001e407800e5
:101958000004e000e2ff3d001100200000c2b300d7
:1019680083ff07006000b80010079800210798005f
:101978000080fa00000006000800fa00889fbe00f8
:10198800300798000040eb00004f7800110020005d
:1019980000c2b30076ff07001e0037003e0090002b
:1019a8008000eb000dfc07000004be001e80fb0059
:1019b80064001000cf80de0005fc07000001be00b7
:1019c800000020000112240095fc07000001be0061
:1019d8000800be0080fb0700e2fb07001007980024
:1019e8001e019000d0cc2c000010b8004308de0087
:1019f8006a00b900000078000000510040479800d4
:101a08004e4090000043b0001100200058ff07002e
:101a18001e4fe8001e407800e44f5000dfff3600fc
:101a28001100200000c2b30051ff07004f04be00a0
:101a38000080fa00000006000400fa00008fbe00d3
:101a48001e00be00e7fb0700c6fb07000000780089
:101a5800c9ff070011002000e0c2b30044ff0700df
:101a68001e00be00dffb07000001be001e00be0016
:101a7800fbfa070002002500337c240034fc070031
:101a8800b8fb070000007800bbff07000080fa00e1
:101a9800000006000400fa00100798000000eb00a0
:101aa800000f7800060037001e0090001e0040005e
:101ab80010407800110020002dff07001e0fe800dd
:101ac8001e009000bdfe07009e0f5000f6ff31007b
:101ad8000080fa00000006000000fa000080eb0019
:101ae80060198800c042a8006bc0a80063c0a800a5
:101af800c882a8006800a8006020a800c082a800ca
:101b08006820a8006000a800c902a900610580003b
:101b1800f0ff28000080600000e0a0006005880059
:101b28008660a9009660a8000080fa000000060000
:101b38001200fa00004080000000e00009003200b6
:101b4800ee000700008fbe00e0ae2800d1ff0700be
:101b58001e00be00b8ff070020b02800cdff070018
:101b680030003700104080000000e0001100320013
:101b7800f6000700200798003107980040b02800b9
:101b8800c4ff07002e009000be00900075fb070000
:101b98000000780078ff070032002000a1b128007b
:101ba8004e0090007efe07004e009000b9ff07002f
:101bb8001c003700204080000000e0000d003200cb
:101bc800e60007005007980061079800d0b1280088
:101bd800b0ff07005e009000ee00900061fb070078
:101be8000000780064ff0700b0b22800a9ff0700d2
:101bf8000c003700bd00070070079800010f98001f
:101c0800e0b22800a3ff07007e0090008e08900035
:101c180054fb07000000780057ff0700a0b3280016
:101c28009cff07000080fa00000006000000fa0090
:101c380021e3a90021a3a90001198000f0cf2f00fa
:101c4800008060000019880001198000000e200043
:101c580001007000001988002043a9002023a90072
:101c680011198000f0ff2100008060001019880021
:101c78002343a9001119800030fc2f000080600068
:101c8800101988002223a9002203a90025e3a9002e
:101c980021198000f00f2e008080600000f02000e5
:101ca800010070002019880021198000f00320002d
:101cb800010070002019880029e3a900411980005b
:101cc800f00f2f008080600000502000010070009d
:101cd8004019880028e3a9004119800000ff2f005f
:101ce800008060005000b30040198800c062a8005e
:101cf8000080eb00601988002ca3a9003023ef00b6
:101d08005105800000072000010070005005880080
:101d180021e3a8000080fa00000006000200fa0093
:101d280085a0a9000000eb00000f78002023a80080
:101d38000000000000198000610060000000e00061
:101d4800fcff32002023a90001188000010f780051
:101d58001e0078000080fa00000006000000fa006b
:101d680005a1a9000421a9000481a80004a1a800d4
:101d78002105800000002700010070002005880070
:101d88009460a8008460a9000080fa0000000600a2
:101d98000000fa0011a1a9001061a8001021a900f3
:101da8001081a80010a1a8000080fa000000060019
:101db8000400fa0010079800e8ff07001e009000d2
:101dc800cf80de0002fb070002002000a3172400da
:101dd8005ffb0700e3fa0700000f78009e00780019
:101de800110888000021ef0005e1a8000140fe006d
:101df80005e1a9000021ef000080fa0000000600bc
:101e08000000fa00e2ff07000621ef000a21ef00b8
:101e180011e1a8000080fa00000006000600fa00a0
:101e280011e1a900500880008000eb00c001dd002e
:101e380002002000300880008000eb00001f4100f5
:101e4800019749001e00be00e1fa070002002000c9
:101e5800a317240060fa0700a1fa070020079800da
:101e68002e0090000080fa00000006000a00fa0028
:101e7800400798000000eb00000f78006000b800f1
:101e880010079800210798000b003700a3ff0700f0
:101e9800300798003e0090008000eb001e01900083
:101ea800ae019000020040008380480010079800af
:101eb800210798001e0fe8004e0090009e00780051
:101ec800808f5000f1ff35004e009000cf80de007b
:101ed8000001be001e009000ae00900033fc070019
:101ee800befa07000080fa00000006000000fa00b1
:101ef8006000b8000080fa00000006000600fa0042
:101f0800401f2000d9ff070075fa0700000f78006e
:101f18001e007800cf80de00adfa0700020028001e
:101f2800834624002cfa0700020020000304240042
:101f380007fb070010079800210798001e00900073
:101f4800ae0090000080fa00000006000000fa00d1
:101f58006000b8000080fa00000006000000fa00e7
:101f68006000b8000080fa00000006000400fa00d3
:101f7800000f780011079800d7fe0700c8fd07007a
:101f88002aff0700f0bc2300a1472400aafe07008f
:101f9800e7fe0700e0b32800befe0700f9ff3700a0
:020000040000fa
:101fa800000800000600000000000000060800000d
:101fb8000200000000000000080800000200000005
:081fc800000000000000000011
:020000040000fa
:0200000401f009
:04000000ffffff00ff
:020000040000fa
:0200000401f009
:04000800ffffff00f7
:020000040000fa
:0200000401f009
:04000c0000000000f0
:020000040000fa
:0200000401f009
:040010005300000099
:020000040000fa
:0200000401f009
:040014005f00000089
:020000040000fa
:0200000401f009
:04001800f3000000f1
:020000040000fa
:0200000401f009
:04001c00c20000001e
:020000040000fa
:0200000401f009
:040020007f0000005d
:00000001FF
